{
  "_format": "hh-sol-artifact-1",
  "contractName": "DAO",
  "sourceName": "contracts/DAO.sol",
  "abi": [
    {
      "inputs": [
        {
          "internalType": "contract SwayamCodesToken",
          "name": "_tokenAddress",
          "type": "address"
        }
      ],
      "stateMutability": "nonpayable",
      "type": "constructor"
    },
    {
      "anonymous": false,
      "inputs": [
        {
          "indexed": false,
          "internalType": "address",
          "name": "voter",
          "type": "address"
        },
        {
          "indexed": false,
          "internalType": "uint256",
          "name": "votesUp",
          "type": "uint256"
        },
        {
          "indexed": false,
          "internalType": "uint256",
          "name": "votesDown",
          "type": "uint256"
        },
        {
          "indexed": false,
          "internalType": "uint256",
          "name": "proposal",
          "type": "uint256"
        },
        {
          "indexed": false,
          "internalType": "bool",
          "name": "votedFor",
          "type": "bool"
        }
      ],
      "name": "NewVote",
      "type": "event"
    },
    {
      "anonymous": false,
      "inputs": [
        {
          "indexed": true,
          "internalType": "address",
          "name": "previousOwner",
          "type": "address"
        },
        {
          "indexed": true,
          "internalType": "address",
          "name": "newOwner",
          "type": "address"
        }
      ],
      "name": "OwnershipTransferred",
      "type": "event"
    },
    {
      "anonymous": false,
      "inputs": [
        {
          "indexed": false,
          "internalType": "uint256",
          "name": "id",
          "type": "uint256"
        },
        {
          "indexed": false,
          "internalType": "bool",
          "name": "passed",
          "type": "bool"
        }
      ],
      "name": "ProposalCount",
      "type": "event"
    },
    {
      "anonymous": false,
      "inputs": [
        {
          "indexed": false,
          "internalType": "uint256",
          "name": "id",
          "type": "uint256"
        },
        {
          "indexed": false,
          "internalType": "string",
          "name": "description",
          "type": "string"
        },
        {
          "indexed": false,
          "internalType": "address",
          "name": "proposer",
          "type": "address"
        },
        {
          "indexed": false,
          "internalType": "uint256",
          "name": "maxVotes",
          "type": "uint256"
        }
      ],
      "name": "ProposalCreated",
      "type": "event"
    },
    {
      "inputs": [
        {
          "internalType": "uint256",
          "name": "proposalId",
          "type": "uint256"
        },
        {
          "internalType": "bool",
          "name": "_vote",
          "type": "bool"
        }
      ],
      "name": "castVote",
      "outputs": [],
      "stateMutability": "nonpayable",
      "type": "function"
    },
    {
      "inputs": [
        {
          "internalType": "uint256",
          "name": "proposalId",
          "type": "uint256"
        }
      ],
      "name": "countVotes",
      "outputs": [],
      "stateMutability": "nonpayable",
      "type": "function"
    },
    {
      "inputs": [
        {
          "internalType": "string",
          "name": "desc",
          "type": "string"
        },
        {
          "internalType": "address[]",
          "name": "canVote",
          "type": "address[]"
        }
      ],
      "name": "createProposal",
      "outputs": [],
      "stateMutability": "nonpayable",
      "type": "function"
    },
    {
      "inputs": [],
      "name": "owner",
      "outputs": [
        {
          "internalType": "address",
          "name": "",
          "type": "address"
        }
      ],
      "stateMutability": "view",
      "type": "function"
    },
    {
      "inputs": [
        {
          "internalType": "uint256",
          "name": "",
          "type": "uint256"
        }
      ],
      "name": "proposals",
      "outputs": [
        {
          "internalType": "uint256",
          "name": "id",
          "type": "uint256"
        },
        {
          "internalType": "bool",
          "name": "exists",
          "type": "bool"
        },
        {
          "internalType": "string",
          "name": "desc",
          "type": "string"
        },
        {
          "internalType": "uint256",
          "name": "deadline",
          "type": "uint256"
        },
        {
          "internalType": "uint256",
          "name": "votesUp",
          "type": "uint256"
        },
        {
          "internalType": "uint256",
          "name": "votesDown",
          "type": "uint256"
        },
        {
          "internalType": "uint256",
          "name": "maxVotes",
          "type": "uint256"
        },
        {
          "internalType": "bool",
          "name": "countConducted",
          "type": "bool"
        },
        {
          "internalType": "bool",
          "name": "passed",
          "type": "bool"
        }
      ],
      "stateMutability": "view",
      "type": "function"
    },
    {
      "inputs": [],
      "name": "proposalsCount",
      "outputs": [
        {
          "internalType": "uint256",
          "name": "",
          "type": "uint256"
        }
      ],
      "stateMutability": "view",
      "type": "function"
    },
    {
      "inputs": [],
      "name": "renounceOwnership",
      "outputs": [],
      "stateMutability": "nonpayable",
      "type": "function"
    },
    {
      "inputs": [
        {
          "internalType": "address",
          "name": "newOwner",
          "type": "address"
        }
      ],
      "name": "transferOwnership",
      "outputs": [],
      "stateMutability": "nonpayable",
      "type": "function"
    }
  ],
  "bytecode": "0x60806040523480156200001157600080fd5b5060405162001cbf38038062001cbf8339818101604052810190620000379190620001e9565b620000576200004b6200009f60201b60201c565b620000a760201b60201c565b80600260006101000a81548173ffffffffffffffffffffffffffffffffffffffff021916908373ffffffffffffffffffffffffffffffffffffffff160217905550506200021b565b600033905090565b60008060009054906101000a900473ffffffffffffffffffffffffffffffffffffffff169050816000806101000a81548173ffffffffffffffffffffffffffffffffffffffff021916908373ffffffffffffffffffffffffffffffffffffffff1602179055508173ffffffffffffffffffffffffffffffffffffffff168173ffffffffffffffffffffffffffffffffffffffff167f8be0079c531659141344cd1fd0a4f28419497f9722a3daafe3b4186f6b6457e060405160405180910390a35050565b600080fd5b600073ffffffffffffffffffffffffffffffffffffffff82169050919050565b60006200019d8262000170565b9050919050565b6000620001b18262000190565b9050919050565b620001c381620001a4565b8114620001cf57600080fd5b50565b600081519050620001e381620001b8565b92915050565b6000602082840312156200020257620002016200016b565b5b60006200021284828501620001d2565b91505092915050565b611a94806200022b6000396000f3fe608060405234801561001057600080fd5b50600436106100885760003560e01c8063715018a61161005b578063715018a61461011b5780638da5cb5b14610125578063be8bb7ba14610143578063f2fde38b1461015f57610088565b8063013cf08b1461008d5780630a9f46ad146100c557806315373e3d146100e35780631840f0ca146100ff575b600080fd5b6100a760048036038101906100a29190610dcd565b61017b565b6040516100bc99989796959493929190610ebd565b60405180910390f35b6100cd610278565b6040516100da9190610f51565b60405180910390f35b6100fd60048036038101906100f89190610f98565b61027e565b005b61011960048036038101906101149190610dcd565b61049e565b005b6101236106d5565b005b61012d61075d565b60405161013a9190611019565b60405180910390f35b61015d6004803603810190610158919061125d565b610786565b005b610179600480360381019061017491906112d5565b6108bf565b005b60036020528060005260406000206000915090508060000154908060010160009054906101000a900460ff16908060020180546101b790611331565b80601f01602080910402602001604051908101604052809291908181526020018280546101e390611331565b80156102305780601f1061020557610100808354040283529160200191610230565b820191906000526020600020905b81548152906001019060200180831161021357829003601f168201915b5050505050908060030154908060040154908060050154908060070154908060090160009054906101000a900460ff16908060090160019054906101000a900460ff16905089565b60015481565b600060036000848152602001908152602001600020905061029f83336109b6565b6102de576040517f08c379a00000000000000000000000000000000000000000000000000000000081526004016102d5906113d4565b60405180910390fd5b4381600301541015610325576040517f08c379a000000000000000000000000000000000000000000000000000000000815260040161031c90611466565b60405180910390fd5b8060080160003373ffffffffffffffffffffffffffffffffffffffff1673ffffffffffffffffffffffffffffffffffffffff16815260200190815260200160002060009054906101000a900460ff16156103b4576040517f08c379a00000000000000000000000000000000000000000000000000000000081526004016103ab906114f8565b60405180910390fd5b60018160080160003373ffffffffffffffffffffffffffffffffffffffff1673ffffffffffffffffffffffffffffffffffffffff16815260200190815260200160002060006101000a81548160ff02191690831515021790555081156104335780600401600081548092919061042990611547565b919050555061044e565b80600501600081548092919061044890611547565b91905055505b7f48b5c3d0ab3c590dcf45db3aa9665f7e18dde11869c75f911cda045d5c929ed5338260040154836005015484600001548660405161049195949392919061158f565b60405180910390a1505050565b6104a6610acf565b73ffffffffffffffffffffffffffffffffffffffff166104c461075d565b73ffffffffffffffffffffffffffffffffffffffff161461051a576040517f08c379a00000000000000000000000000000000000000000000000000000000081526004016105119061162e565b60405180910390fd5b60006003600083815260200190815260200160002090508060010160009054906101000a900460ff16610582576040517f08c379a00000000000000000000000000000000000000000000000000000000081526004016105799061169a565b60405180910390fd5b438160030154106105c8576040517f08c379a00000000000000000000000000000000000000000000000000000000081526004016105bf90611706565b60405180910390fd5b8060090160009054906101000a900460ff161561061a576040517f08c379a000000000000000000000000000000000000000000000000000000000815260040161061190611772565b60405180910390fd5b80600501548160040154111561064c5760018160090160016101000a81548160ff02191690831515021790555061066a565b60008160090160016101000a81548160ff0219169083151502179055505b60018160090160006101000a81548160ff0219169083151502179055507fa5833ab43e4bc2008eeed8da9ba765f8ff721bca2757d7bdb0680e615177f722828260090160019054906101000a900460ff166040516106c9929190611792565b60405180910390a15050565b6106dd610acf565b73ffffffffffffffffffffffffffffffffffffffff166106fb61075d565b73ffffffffffffffffffffffffffffffffffffffff1614610751576040517f08c379a00000000000000000000000000000000000000000000000000000000081526004016107489061162e565b60405180910390fd5b61075b6000610ad7565b565b60008060009054906101000a900473ffffffffffffffffffffffffffffffffffffffff16905090565b61078f33610b9b565b6107ce576040517f08c379a00000000000000000000000000000000000000000000000000000000081526004016107c59061182d565b60405180910390fd5b600160008154809291906107e190611547565b919050555060006003600060015481526020019081526020016000209050600154816000018190555082816002019080519060200190610822929190610c56565b508181600601908051906020019061083b929190610cdc565b50606443610849919061184d565b81600301819055508151816007018190555060018160010160006101000a81548160ff0219169083151502179055507f9cc3d9dd626042cdefb76484b91708c3207b637214b44f20111c893548d9c85f8160000154843385516040516108b294939291906118a3565b60405180910390a1505050565b6108c7610acf565b73ffffffffffffffffffffffffffffffffffffffff166108e561075d565b73ffffffffffffffffffffffffffffffffffffffff161461093b576040517f08c379a00000000000000000000000000000000000000000000000000000000081526004016109329061162e565b60405180910390fd5b600073ffffffffffffffffffffffffffffffffffffffff168173ffffffffffffffffffffffffffffffffffffffff16036109aa576040517f08c379a00000000000000000000000000000000000000000000000000000000081526004016109a190611961565b60405180910390fd5b6109b381610ad7565b50565b6000806003600085815260200190815260200160002090508060010160009054906101000a900460ff16610a1f576040517f08c379a0000000000000000000000000000000000000000000000000000000008152600401610a16906119cd565b60405180910390fd5b60005b8160060180549050811015610ac2578373ffffffffffffffffffffffffffffffffffffffff16826006018281548110610a5e57610a5d6119ed565b5b9060005260206000200160009054906101000a900473ffffffffffffffffffffffffffffffffffffffff1673ffffffffffffffffffffffffffffffffffffffff1603610aaf57600192505050610ac9565b8080610aba90611547565b915050610a22565b5060009150505b92915050565b600033905090565b60008060009054906101000a900473ffffffffffffffffffffffffffffffffffffffff169050816000806101000a81548173ffffffffffffffffffffffffffffffffffffffff021916908373ffffffffffffffffffffffffffffffffffffffff1602179055508173ffffffffffffffffffffffffffffffffffffffff168173ffffffffffffffffffffffffffffffffffffffff167f8be0079c531659141344cd1fd0a4f28419497f9722a3daafe3b4186f6b6457e060405160405180910390a35050565b600080600260009054906101000a900473ffffffffffffffffffffffffffffffffffffffff1673ffffffffffffffffffffffffffffffffffffffff166370a08231846040518263ffffffff1660e01b8152600401610bf99190611019565b602060405180830381865afa158015610c16573d6000803e3d6000fd5b505050506040513d601f19601f82011682018060405250810190610c3a9190611a31565b905060008111610c4b576000610c4e565b60015b915050919050565b828054610c6290611331565b90600052602060002090601f016020900481019282610c845760008555610ccb565b82601f10610c9d57805160ff1916838001178555610ccb565b82800160010185558215610ccb579182015b82811115610cca578251825591602001919060010190610caf565b5b509050610cd89190610d66565b5090565b828054828255906000526020600020908101928215610d55579160200282015b82811115610d545782518260006101000a81548173ffffffffffffffffffffffffffffffffffffffff021916908373ffffffffffffffffffffffffffffffffffffffff16021790555091602001919060010190610cfc565b5b509050610d629190610d66565b5090565b5b80821115610d7f576000816000905550600101610d67565b5090565b6000604051905090565b600080fd5b600080fd5b6000819050919050565b610daa81610d97565b8114610db557600080fd5b50565b600081359050610dc781610da1565b92915050565b600060208284031215610de357610de2610d8d565b5b6000610df184828501610db8565b91505092915050565b610e0381610d97565b82525050565b60008115159050919050565b610e1e81610e09565b82525050565b600081519050919050565b600082825260208201905092915050565b60005b83811015610e5e578082015181840152602081019050610e43565b83811115610e6d576000848401525b50505050565b6000601f19601f8301169050919050565b6000610e8f82610e24565b610e998185610e2f565b9350610ea9818560208601610e40565b610eb281610e73565b840191505092915050565b600061012082019050610ed3600083018c610dfa565b610ee0602083018b610e15565b8181036040830152610ef2818a610e84565b9050610f016060830189610dfa565b610f0e6080830188610dfa565b610f1b60a0830187610dfa565b610f2860c0830186610dfa565b610f3560e0830185610e15565b610f43610100830184610e15565b9a9950505050505050505050565b6000602082019050610f666000830184610dfa565b92915050565b610f7581610e09565b8114610f8057600080fd5b50565b600081359050610f9281610f6c565b92915050565b60008060408385031215610faf57610fae610d8d565b5b6000610fbd85828601610db8565b9250506020610fce85828601610f83565b9150509250929050565b600073ffffffffffffffffffffffffffffffffffffffff82169050919050565b600061100382610fd8565b9050919050565b61101381610ff8565b82525050565b600060208201905061102e600083018461100a565b92915050565b600080fd5b600080fd5b7f4e487b7100000000000000000000000000000000000000000000000000000000600052604160045260246000fd5b61107682610e73565b810181811067ffffffffffffffff821117156110955761109461103e565b5b80604052505050565b60006110a8610d83565b90506110b4828261106d565b919050565b600067ffffffffffffffff8211156110d4576110d361103e565b5b6110dd82610e73565b9050602081019050919050565b82818337600083830152505050565b600061110c611107846110b9565b61109e565b90508281526020810184848401111561112857611127611039565b5b6111338482856110ea565b509392505050565b600082601f8301126111505761114f611034565b5b81356111608482602086016110f9565b91505092915050565b600067ffffffffffffffff8211156111845761118361103e565b5b602082029050602081019050919050565b600080fd5b6111a381610ff8565b81146111ae57600080fd5b50565b6000813590506111c08161119a565b92915050565b60006111d96111d484611169565b61109e565b905080838252602082019050602084028301858111156111fc576111fb611195565b5b835b81811015611225578061121188826111b1565b8452602084019350506020810190506111fe565b5050509392505050565b600082601f83011261124457611243611034565b5b81356112548482602086016111c6565b91505092915050565b6000806040838503121561127457611273610d8d565b5b600083013567ffffffffffffffff81111561129257611291610d92565b5b61129e8582860161113b565b925050602083013567ffffffffffffffff8111156112bf576112be610d92565b5b6112cb8582860161122f565b9150509250929050565b6000602082840312156112eb576112ea610d8d565b5b60006112f9848285016111b1565b91505092915050565b7f4e487b7100000000000000000000000000000000000000000000000000000000600052602260045260246000fd5b6000600282049050600182168061134957607f821691505b60208210810361135c5761135b611302565b5b50919050565b7f596f7520617265206e6f7420656c696769626c6520746f20636173742074686560008201527f20766f7465000000000000000000000000000000000000000000000000000000602082015250565b60006113be602583610e2f565b91506113c982611362565b604082019050919050565b600060208201905081810360008301526113ed816113b1565b9050919050565b7f54686520646561646c696e652069732070617373656420666f7220746869732060008201527f70726f706f73616c000000000000000000000000000000000000000000000000602082015250565b6000611450602883610e2f565b915061145b826113f4565b604082019050919050565b6000602082019050818103600083015261147f81611443565b9050919050565b7f596f75206861766520616c726561647920766f746564206f6e2074686973207060008201527f726f706f73616c00000000000000000000000000000000000000000000000000602082015250565b60006114e2602783610e2f565b91506114ed82611486565b604082019050919050565b60006020820190508181036000830152611511816114d5565b9050919050565b7f4e487b7100000000000000000000000000000000000000000000000000000000600052601160045260246000fd5b600061155282610d97565b91507fffffffffffffffffffffffffffffffffffffffffffffffffffffffffffffffff820361158457611583611518565b5b600182019050919050565b600060a0820190506115a4600083018861100a565b6115b16020830187610dfa565b6115be6040830186610dfa565b6115cb6060830185610dfa565b6115d86080830184610e15565b9695505050505050565b7f4f776e61626c653a2063616c6c6572206973206e6f7420746865206f776e6572600082015250565b6000611618602083610e2f565b9150611623826115e2565b602082019050919050565b600060208201905081810360008301526116478161160b565b9050919050565b7f496e76616c69642050726f706f73616c20496400000000000000000000000000600082015250565b6000611684601383610e2f565b915061168f8261164e565b602082019050919050565b600060208201905081810360008301526116b381611677565b9050919050565b7f446561646c696e65206973206e6f742070617373656420796574000000000000600082015250565b60006116f0601a83610e2f565b91506116fb826116ba565b602082019050919050565b6000602082019050818103600083015261171f816116e3565b9050919050565b7f566f74657320616c726561647920636f756e7465642100000000000000000000600082015250565b600061175c601683610e2f565b915061176782611726565b602082019050919050565b6000602082019050818103600083015261178b8161174f565b9050919050565b60006040820190506117a76000830185610dfa565b6117b46020830184610e15565b9392505050565b7f596f7520617265206e6f7420656c696769626c6520746f20637265617465206160008201527f2070726f706f73616c0000000000000000000000000000000000000000000000602082015250565b6000611817602983610e2f565b9150611822826117bb565b604082019050919050565b600060208201905081810360008301526118468161180a565b9050919050565b600061185882610d97565b915061186383610d97565b9250827fffffffffffffffffffffffffffffffffffffffffffffffffffffffffffffffff0382111561189857611897611518565b5b828201905092915050565b60006080820190506118b86000830187610dfa565b81810360208301526118ca8186610e84565b90506118d9604083018561100a565b6118e66060830184610dfa565b95945050505050565b7f4f776e61626c653a206e6577206f776e657220697320746865207a65726f206160008201527f6464726573730000000000000000000000000000000000000000000000000000602082015250565b600061194b602683610e2f565b9150611956826118ef565b604082019050919050565b6000602082019050818103600083015261197a8161193e565b9050919050565b7f50726f706f73616c20646f65736e277420657869737400000000000000000000600082015250565b60006119b7601683610e2f565b91506119c282611981565b602082019050919050565b600060208201905081810360008301526119e6816119aa565b9050919050565b7f4e487b7100000000000000000000000000000000000000000000000000000000600052603260045260246000fd5b600081519050611a2b81610da1565b92915050565b600060208284031215611a4757611a46610d8d565b5b6000611a5584828501611a1c565b9150509291505056fea26469706673582212201cd8fd2556bd6e462b12a2d03738cabfc5666f1c7aaa9d75f5886df558ee7f5064736f6c634300080d0033",
  "linkReferences": {},
  "deployedLinkReferences": {}
}