{
  "_format": "hh-sol-artifact-1",
  "contractName": "SwayamCodesToken",
  "sourceName": "contracts/SwayamCodesToken.sol",
  "abi": [
    {
      "inputs": [
        {
          "internalType": "uint256",
          "name": "initialSupply",
          "type": "uint256"
        }
      ],
      "stateMutability": "nonpayable",
      "type": "constructor"
    },
    {
      "anonymous": false,
      "inputs": [
        {
          "indexed": true,
          "internalType": "address",
          "name": "owner",
          "type": "address"
        },
        {
          "indexed": true,
          "internalType": "address",
          "name": "spender",
          "type": "address"
        },
        {
          "indexed": false,
          "internalType": "uint256",
          "name": "value",
          "type": "uint256"
        }
      ],
      "name": "Approval",
      "type": "event"
    },
    {
      "anonymous": false,
      "inputs": [
        {
          "indexed": true,
          "internalType": "address",
          "name": "operator",
          "type": "address"
        },
        {
          "indexed": true,
          "internalType": "address",
          "name": "tokenHolder",
          "type": "address"
        }
      ],
      "name": "AuthorizedOperator",
      "type": "event"
    },
    {
      "anonymous": false,
      "inputs": [
        {
          "indexed": true,
          "internalType": "address",
          "name": "operator",
          "type": "address"
        },
        {
          "indexed": true,
          "internalType": "address",
          "name": "from",
          "type": "address"
        },
        {
          "indexed": false,
          "internalType": "uint256",
          "name": "amount",
          "type": "uint256"
        },
        {
          "indexed": false,
          "internalType": "bytes",
          "name": "data",
          "type": "bytes"
        },
        {
          "indexed": false,
          "internalType": "bytes",
          "name": "operatorData",
          "type": "bytes"
        }
      ],
      "name": "Burned",
      "type": "event"
    },
    {
      "anonymous": false,
      "inputs": [
        {
          "indexed": true,
          "internalType": "address",
          "name": "operator",
          "type": "address"
        },
        {
          "indexed": true,
          "internalType": "address",
          "name": "to",
          "type": "address"
        },
        {
          "indexed": false,
          "internalType": "uint256",
          "name": "amount",
          "type": "uint256"
        },
        {
          "indexed": false,
          "internalType": "bytes",
          "name": "data",
          "type": "bytes"
        },
        {
          "indexed": false,
          "internalType": "bytes",
          "name": "operatorData",
          "type": "bytes"
        }
      ],
      "name": "Minted",
      "type": "event"
    },
    {
      "anonymous": false,
      "inputs": [
        {
          "indexed": true,
          "internalType": "address",
          "name": "operator",
          "type": "address"
        },
        {
          "indexed": true,
          "internalType": "address",
          "name": "tokenHolder",
          "type": "address"
        }
      ],
      "name": "RevokedOperator",
      "type": "event"
    },
    {
      "anonymous": false,
      "inputs": [
        {
          "indexed": true,
          "internalType": "address",
          "name": "operator",
          "type": "address"
        },
        {
          "indexed": true,
          "internalType": "address",
          "name": "from",
          "type": "address"
        },
        {
          "indexed": true,
          "internalType": "address",
          "name": "to",
          "type": "address"
        },
        {
          "indexed": false,
          "internalType": "uint256",
          "name": "amount",
          "type": "uint256"
        },
        {
          "indexed": false,
          "internalType": "bytes",
          "name": "data",
          "type": "bytes"
        },
        {
          "indexed": false,
          "internalType": "bytes",
          "name": "operatorData",
          "type": "bytes"
        }
      ],
      "name": "Sent",
      "type": "event"
    },
    {
      "anonymous": false,
      "inputs": [
        {
          "indexed": true,
          "internalType": "address",
          "name": "from",
          "type": "address"
        },
        {
          "indexed": true,
          "internalType": "address",
          "name": "to",
          "type": "address"
        },
        {
          "indexed": false,
          "internalType": "uint256",
          "name": "value",
          "type": "uint256"
        }
      ],
      "name": "Transfer",
      "type": "event"
    },
    {
      "inputs": [
        {
          "internalType": "address",
          "name": "holder",
          "type": "address"
        },
        {
          "internalType": "address",
          "name": "spender",
          "type": "address"
        }
      ],
      "name": "allowance",
      "outputs": [
        {
          "internalType": "uint256",
          "name": "",
          "type": "uint256"
        }
      ],
      "stateMutability": "view",
      "type": "function"
    },
    {
      "inputs": [
        {
          "internalType": "address",
          "name": "spender",
          "type": "address"
        },
        {
          "internalType": "uint256",
          "name": "value",
          "type": "uint256"
        }
      ],
      "name": "approve",
      "outputs": [
        {
          "internalType": "bool",
          "name": "",
          "type": "bool"
        }
      ],
      "stateMutability": "nonpayable",
      "type": "function"
    },
    {
      "inputs": [
        {
          "internalType": "address",
          "name": "operator",
          "type": "address"
        }
      ],
      "name": "authorizeOperator",
      "outputs": [],
      "stateMutability": "nonpayable",
      "type": "function"
    },
    {
      "inputs": [
        {
          "internalType": "address",
          "name": "tokenHolder",
          "type": "address"
        }
      ],
      "name": "balanceOf",
      "outputs": [
        {
          "internalType": "uint256",
          "name": "",
          "type": "uint256"
        }
      ],
      "stateMutability": "view",
      "type": "function"
    },
    {
      "inputs": [
        {
          "internalType": "uint256",
          "name": "amount",
          "type": "uint256"
        },
        {
          "internalType": "bytes",
          "name": "data",
          "type": "bytes"
        }
      ],
      "name": "burn",
      "outputs": [],
      "stateMutability": "nonpayable",
      "type": "function"
    },
    {
      "inputs": [],
      "name": "decimals",
      "outputs": [
        {
          "internalType": "uint8",
          "name": "",
          "type": "uint8"
        }
      ],
      "stateMutability": "pure",
      "type": "function"
    },
    {
      "inputs": [],
      "name": "defaultOperators",
      "outputs": [
        {
          "internalType": "address[]",
          "name": "",
          "type": "address[]"
        }
      ],
      "stateMutability": "view",
      "type": "function"
    },
    {
      "inputs": [],
      "name": "granularity",
      "outputs": [
        {
          "internalType": "uint256",
          "name": "",
          "type": "uint256"
        }
      ],
      "stateMutability": "view",
      "type": "function"
    },
    {
      "inputs": [
        {
          "internalType": "address",
          "name": "operator",
          "type": "address"
        },
        {
          "internalType": "address",
          "name": "tokenHolder",
          "type": "address"
        }
      ],
      "name": "isOperatorFor",
      "outputs": [
        {
          "internalType": "bool",
          "name": "",
          "type": "bool"
        }
      ],
      "stateMutability": "view",
      "type": "function"
    },
    {
      "inputs": [],
      "name": "name",
      "outputs": [
        {
          "internalType": "string",
          "name": "",
          "type": "string"
        }
      ],
      "stateMutability": "view",
      "type": "function"
    },
    {
      "inputs": [
        {
          "internalType": "address",
          "name": "account",
          "type": "address"
        },
        {
          "internalType": "uint256",
          "name": "amount",
          "type": "uint256"
        },
        {
          "internalType": "bytes",
          "name": "data",
          "type": "bytes"
        },
        {
          "internalType": "bytes",
          "name": "operatorData",
          "type": "bytes"
        }
      ],
      "name": "operatorBurn",
      "outputs": [],
      "stateMutability": "nonpayable",
      "type": "function"
    },
    {
      "inputs": [
        {
          "internalType": "address",
          "name": "sender",
          "type": "address"
        },
        {
          "internalType": "address",
          "name": "recipient",
          "type": "address"
        },
        {
          "internalType": "uint256",
          "name": "amount",
          "type": "uint256"
        },
        {
          "internalType": "bytes",
          "name": "data",
          "type": "bytes"
        },
        {
          "internalType": "bytes",
          "name": "operatorData",
          "type": "bytes"
        }
      ],
      "name": "operatorSend",
      "outputs": [],
      "stateMutability": "nonpayable",
      "type": "function"
    },
    {
      "inputs": [],
      "name": "owner",
      "outputs": [
        {
          "internalType": "address",
          "name": "",
          "type": "address"
        }
      ],
      "stateMutability": "view",
      "type": "function"
    },
    {
      "inputs": [
        {
          "internalType": "address",
          "name": "operator",
          "type": "address"
        }
      ],
      "name": "revokeOperator",
      "outputs": [],
      "stateMutability": "nonpayable",
      "type": "function"
    },
    {
      "inputs": [
        {
          "internalType": "address",
          "name": "recipient",
          "type": "address"
        },
        {
          "internalType": "uint256",
          "name": "amount",
          "type": "uint256"
        },
        {
          "internalType": "bytes",
          "name": "data",
          "type": "bytes"
        }
      ],
      "name": "send",
      "outputs": [],
      "stateMutability": "nonpayable",
      "type": "function"
    },
    {
      "inputs": [],
      "name": "symbol",
      "outputs": [
        {
          "internalType": "string",
          "name": "",
          "type": "string"
        }
      ],
      "stateMutability": "view",
      "type": "function"
    },
    {
      "inputs": [],
      "name": "totalSupply",
      "outputs": [
        {
          "internalType": "uint256",
          "name": "",
          "type": "uint256"
        }
      ],
      "stateMutability": "view",
      "type": "function"
    },
    {
      "inputs": [
        {
          "internalType": "address",
          "name": "recipient",
          "type": "address"
        },
        {
          "internalType": "uint256",
          "name": "amount",
          "type": "uint256"
        }
      ],
      "name": "transfer",
      "outputs": [
        {
          "internalType": "bool",
          "name": "",
          "type": "bool"
        }
      ],
      "stateMutability": "nonpayable",
      "type": "function"
    },
    {
      "inputs": [
        {
          "internalType": "address",
          "name": "holder",
          "type": "address"
        },
        {
          "internalType": "address",
          "name": "recipient",
          "type": "address"
        },
        {
          "internalType": "uint256",
          "name": "amount",
          "type": "uint256"
        }
      ],
      "name": "transferFrom",
      "outputs": [
        {
          "internalType": "bool",
          "name": "",
          "type": "bool"
        }
      ],
      "stateMutability": "nonpayable",
      "type": "function"
    }
  ],
  "bytecode": "0x60806040523480156200001157600080fd5b5060405162003c8238038062003c82833981810160405281019062000037919062000a0c565b6040518060400160405280600c81526020017f53776179616d20436f64657300000000000000000000000000000000000000008152506040518060400160405280600a81526020017f53574159414d434f444500000000000000000000000000000000000000000000815250600067ffffffffffffffff811115620000c157620000c062000a3e565b5b604051908082528060200260200182016040528015620000f05781602001602082028036833780820191505090505b508260029080519060200190620001099291906200088d565b508160039080519060200190620001229291906200088d565b5080600490805190602001906200013b9291906200091e565b5060005b8151811015620001d45760016005600084848151811062000165576200016462000a6d565b5b602002602001015173ffffffffffffffffffffffffffffffffffffffff1673ffffffffffffffffffffffffffffffffffffffff16815260200190815260200160002060006101000a81548160ff0219169083151502179055508080620001cb9062000acb565b9150506200013f565b50731820a4b7618bde71dce8cdc73aab6c95905fad2473ffffffffffffffffffffffffffffffffffffffff166329965a1d307fac7fbab5f54a3ca8194167523c6753bfeb96a445279294b6125b68cce2177054306040518463ffffffff1660e01b8152600401620002489392919062000b78565b600060405180830381600087803b1580156200026357600080fd5b505af115801562000278573d6000803e3d6000fd5b50505050731820a4b7618bde71dce8cdc73aab6c95905fad2473ffffffffffffffffffffffffffffffffffffffff166329965a1d307faea199e31a596269b42cdafd93407f14436db6e4cad65417994c2eb37381e05a306040518463ffffffff1660e01b8152600401620002ef9392919062000b78565b600060405180830381600087803b1580156200030a57600080fd5b505af11580156200031f573d6000803e3d6000fd5b5050505050505033600960006101000a81548173ffffffffffffffffffffffffffffffffffffffff021916908373ffffffffffffffffffffffffffffffffffffffff1602179055506200039933826040518060200160405280600081525060405180602001604052806000815250620003a060201b60201c565b5062001051565b620003b6848484846001620003bc60201b60201c565b50505050565b600073ffffffffffffffffffffffffffffffffffffffff168573ffffffffffffffffffffffffffffffffffffffff16036200042e576040517f08c379a0000000000000000000000000000000000000000000000000000000008152600401620004259062000c16565b60405180910390fd5b600062000440620005bc60201b60201c565b9050620004578160008888620005c460201b60201c565b84600160008282546200046b919062000c38565b92505081905550846000808873ffffffffffffffffffffffffffffffffffffffff1673ffffffffffffffffffffffffffffffffffffffff1681526020019081526020016000206000828254620004c2919062000c38565b92505081905550620004e181600088888888886200067660201b60201c565b8573ffffffffffffffffffffffffffffffffffffffff168173ffffffffffffffffffffffffffffffffffffffff167f2fe5be0146f74c5bce36c0b80911af6c7d86ff27e89d5cfa61fc681327954e5d878787604051620005449392919062000d4a565b60405180910390a38573ffffffffffffffffffffffffffffffffffffffff16600073ffffffffffffffffffffffffffffffffffffffff167fddf252ad1be2c89b69c2b068fc378daa952ba7f163c4a11628f55a4df523b3ef87604051620005ac919062000d95565b60405180910390a3505050505050565b600033905090565b600960009054906101000a900473ffffffffffffffffffffffffffffffffffffffff1673ffffffffffffffffffffffffffffffffffffffff163373ffffffffffffffffffffffffffffffffffffffff161462000657576040517f08c379a00000000000000000000000000000000000000000000000000000000081526004016200064e9062000e02565b60405180910390fd5b62000670848484846200086460201b62000ec01760201c565b50505050565b6000731820a4b7618bde71dce8cdc73aab6c95905fad2473ffffffffffffffffffffffffffffffffffffffff1663aabbb8ca877fb281fc8c12954d22544db45de3159a39272895b169a852b314f9cc762e44c53b6040518363ffffffff1660e01b8152600401620006e992919062000e24565b602060405180830381865afa15801562000707573d6000803e3d6000fd5b505050506040513d601f19601f820116820180604052508101906200072d919062000e82565b9050600073ffffffffffffffffffffffffffffffffffffffff168173ffffffffffffffffffffffffffffffffffffffff1614620007e2578073ffffffffffffffffffffffffffffffffffffffff166223de298989898989896040518763ffffffff1660e01b8152600401620007a89695949392919062000eb4565b600060405180830381600087803b158015620007c357600080fd5b505af1158015620007d8573d6000803e3d6000fd5b505050506200085a565b81156200085957620008158673ffffffffffffffffffffffffffffffffffffffff166200086a60201b62000ec61760201c565b1562000858576040517f08c379a00000000000000000000000000000000000000000000000000000000081526004016200084f9062000fcb565b60405180910390fd5b5b5b5050505050505050565b50505050565b6000808273ffffffffffffffffffffffffffffffffffffffff163b119050919050565b8280546200089b906200101c565b90600052602060002090601f016020900481019282620008bf57600085556200090b565b82601f10620008da57805160ff19168380011785556200090b565b828001600101855582156200090b579182015b828111156200090a578251825591602001919060010190620008ed565b5b5090506200091a9190620009ad565b5090565b8280548282559060005260206000209081019282156200099a579160200282015b82811115620009995782518260006101000a81548173ffffffffffffffffffffffffffffffffffffffff021916908373ffffffffffffffffffffffffffffffffffffffff160217905550916020019190600101906200093f565b5b509050620009a99190620009ad565b5090565b5b80821115620009c8576000816000905550600101620009ae565b5090565b600080fd5b6000819050919050565b620009e681620009d1565b8114620009f257600080fd5b50565b60008151905062000a0681620009db565b92915050565b60006020828403121562000a255762000a24620009cc565b5b600062000a3584828501620009f5565b91505092915050565b7f4e487b7100000000000000000000000000000000000000000000000000000000600052604160045260246000fd5b7f4e487b7100000000000000000000000000000000000000000000000000000000600052603260045260246000fd5b7f4e487b7100000000000000000000000000000000000000000000000000000000600052601160045260246000fd5b600062000ad882620009d1565b91507fffffffffffffffffffffffffffffffffffffffffffffffffffffffffffffffff820362000b0d5762000b0c62000a9c565b5b600182019050919050565b600073ffffffffffffffffffffffffffffffffffffffff82169050919050565b600062000b458262000b18565b9050919050565b62000b578162000b38565b82525050565b6000819050919050565b62000b728162000b5d565b82525050565b600060608201905062000b8f600083018662000b4c565b62000b9e602083018562000b67565b62000bad604083018462000b4c565b949350505050565b600082825260208201905092915050565b7f4552433737373a206d696e7420746f20746865207a65726f2061646472657373600082015250565b600062000bfe60208362000bb5565b915062000c0b8262000bc6565b602082019050919050565b6000602082019050818103600083015262000c318162000bef565b9050919050565b600062000c4582620009d1565b915062000c5283620009d1565b9250827fffffffffffffffffffffffffffffffffffffffffffffffffffffffffffffffff0382111562000c8a5762000c8962000a9c565b5b828201905092915050565b62000ca081620009d1565b82525050565b600081519050919050565b600082825260208201905092915050565b60005b8381101562000ce257808201518184015260208101905062000cc5565b8381111562000cf2576000848401525b50505050565b6000601f19601f8301169050919050565b600062000d168262000ca6565b62000d22818562000cb1565b935062000d3481856020860162000cc2565b62000d3f8162000cf8565b840191505092915050565b600060608201905062000d61600083018662000c95565b818103602083015262000d75818562000d09565b9050818103604083015262000d8b818462000d09565b9050949350505050565b600060208201905062000dac600083018462000c95565b92915050565b7f4f6e6c79204f776e65722063616e207472616e7366657220746f6b656e730000600082015250565b600062000dea601e8362000bb5565b915062000df78262000db2565b602082019050919050565b6000602082019050818103600083015262000e1d8162000ddb565b9050919050565b600060408201905062000e3b600083018562000b4c565b62000e4a602083018462000b67565b9392505050565b62000e5c8162000b38565b811462000e6857600080fd5b50565b60008151905062000e7c8162000e51565b92915050565b60006020828403121562000e9b5762000e9a620009cc565b5b600062000eab8482850162000e6b565b91505092915050565b600060c08201905062000ecb600083018962000b4c565b62000eda602083018862000b4c565b62000ee9604083018762000b4c565b62000ef8606083018662000c95565b818103608083015262000f0c818562000d09565b905081810360a083015262000f22818462000d09565b9050979650505050505050565b7f4552433737373a20746f6b656e20726563697069656e7420636f6e747261637460008201527f20686173206e6f20696d706c656d656e74657220666f7220455243373737546f60208201527f6b656e73526563697069656e7400000000000000000000000000000000000000604082015250565b600062000fb3604d8362000bb5565b915062000fc08262000f2f565b606082019050919050565b6000602082019050818103600083015262000fe68162000fa4565b9050919050565b7f4e487b7100000000000000000000000000000000000000000000000000000000600052602260045260246000fd5b600060028204905060018216806200103557607f821691505b6020821081036200104b576200104a62000fed565b5b50919050565b612c2180620010616000396000f3fe608060405234801561001057600080fd5b50600436106101215760003560e01c80638da5cb5b116100ad578063d95b637111610071578063d95b63711461030c578063dd62ed3e1461033c578063fad8b32a1461036c578063fc673c4f14610388578063fe9d9303146103a457610121565b80638da5cb5b14610268578063959b8c3f1461028657806395d89b41146102a25780639bd9bbc6146102c0578063a9059cbb146102dc57610121565b806323b872dd116100f457806323b872dd146101b0578063313ce567146101e0578063556f0dc7146101fe57806362ad1b831461021c57806370a082311461023857610121565b806306e485381461012657806306fdde0314610144578063095ea7b31461016257806318160ddd14610192575b600080fd5b61012e6103c0565b60405161013b9190611b9b565b60405180910390f35b61014c61044e565b6040516101599190611c56565b60405180910390f35b61017c60048036038101906101779190611cee565b6104e0565b6040516101899190611d49565b60405180910390f35b61019a610503565b6040516101a79190611d73565b60405180910390f35b6101ca60048036038101906101c59190611d8e565b61050d565b6040516101d79190611d49565b60405180910390f35b6101e861055e565b6040516101f59190611dfd565b60405180910390f35b610206610567565b6040516102139190611d73565b60405180910390f35b61023660048036038101906102319190611f4d565b610570565b005b610252600480360381019061024d9190612000565b6105d6565b60405161025f9190611d73565b60405180910390f35b61027061061e565b60405161027d919061203c565b60405180910390f35b6102a0600480360381019061029b9190612000565b610644565b005b6102aa6108a4565b6040516102b79190611c56565b60405180910390f35b6102da60048036038101906102d59190612057565b610936565b005b6102f660048036038101906102f19190611cee565b610960565b6040516103039190611d49565b60405180910390f35b610326600480360381019061032191906120c6565b6109a0565b6040516103339190611d49565b60405180910390f35b610356600480360381019061035191906120c6565b610b51565b6040516103639190611d73565b60405180910390f35b61038660048036038101906103819190612000565b610bd8565b005b6103a2600480360381019061039d9190612106565b610e38565b005b6103be60048036038101906103b991906121a5565b610e9a565b005b6060600480548060200260200160405190810160405280929190818152602001828054801561044457602002820191906000526020600020905b8160009054906101000a900473ffffffffffffffffffffffffffffffffffffffff1673ffffffffffffffffffffffffffffffffffffffff16815260200190600101908083116103fa575b5050505050905090565b60606002805461045d90612230565b80601f016020809104026020016040519081016040528092919081815260200182805461048990612230565b80156104d65780601f106104ab576101008083540402835291602001916104d6565b820191906000526020600020905b8154815290600101906020018083116104b957829003601f168201915b5050505050905090565b6000806104eb610ee9565b90506104f8818585610ef1565b600191505092915050565b6000600154905090565b600080610518610ee9565b90506105258582856110ba565b61055285858560405180602001604052806000815250604051806020016040528060008152506000611146565b60019150509392505050565b60006012905090565b60006001905090565b61058161057b610ee9565b866109a0565b6105c0576040517f08c379a00000000000000000000000000000000000000000000000000000000081526004016105b7906122d3565b60405180910390fd5b6105cf85858585856001611146565b5050505050565b60008060008373ffffffffffffffffffffffffffffffffffffffff1673ffffffffffffffffffffffffffffffffffffffff168152602001908152602001600020549050919050565b600960009054906101000a900473ffffffffffffffffffffffffffffffffffffffff1681565b8073ffffffffffffffffffffffffffffffffffffffff16610663610ee9565b73ffffffffffffffffffffffffffffffffffffffff16036106b9576040517f08c379a00000000000000000000000000000000000000000000000000000000081526004016106b090612365565b60405180910390fd5b600560008273ffffffffffffffffffffffffffffffffffffffff1673ffffffffffffffffffffffffffffffffffffffff16815260200190815260200160002060009054906101000a900460ff16156107a35760076000610717610ee9565b73ffffffffffffffffffffffffffffffffffffffff1673ffffffffffffffffffffffffffffffffffffffff16815260200190815260200160002060008273ffffffffffffffffffffffffffffffffffffffff1673ffffffffffffffffffffffffffffffffffffffff16815260200190815260200160002060006101000a81549060ff0219169055610840565b6001600660006107b1610ee9565b73ffffffffffffffffffffffffffffffffffffffff1673ffffffffffffffffffffffffffffffffffffffff16815260200190815260200160002060008373ffffffffffffffffffffffffffffffffffffffff1673ffffffffffffffffffffffffffffffffffffffff16815260200190815260200160002060006101000a81548160ff0219169083151502179055505b610848610ee9565b73ffffffffffffffffffffffffffffffffffffffff168173ffffffffffffffffffffffffffffffffffffffff167ff4caeb2d6ca8932a215a353d0703c326ec2d81fc68170f320eb2ab49e9df61f960405160405180910390a350565b6060600380546108b390612230565b80601f01602080910402602001604051908101604052809291908181526020018280546108df90612230565b801561092c5780601f106109015761010080835404028352916020019161092c565b820191906000526020600020905b81548152906001019060200180831161090f57829003601f168201915b5050505050905090565b61095b610941610ee9565b848484604051806020016040528060008152506001611146565b505050565b600061099661096d610ee9565b848460405180602001604052806000815250604051806020016040528060008152506000611146565b6001905092915050565b60008173ffffffffffffffffffffffffffffffffffffffff168373ffffffffffffffffffffffffffffffffffffffff161480610ab85750600560008473ffffffffffffffffffffffffffffffffffffffff1673ffffffffffffffffffffffffffffffffffffffff16815260200190815260200160002060009054906101000a900460ff168015610ab75750600760008373ffffffffffffffffffffffffffffffffffffffff1673ffffffffffffffffffffffffffffffffffffffff16815260200190815260200160002060008473ffffffffffffffffffffffffffffffffffffffff1673ffffffffffffffffffffffffffffffffffffffff16815260200190815260200160002060009054906101000a900460ff16155b5b80610b495750600660008373ffffffffffffffffffffffffffffffffffffffff1673ffffffffffffffffffffffffffffffffffffffff16815260200190815260200160002060008473ffffffffffffffffffffffffffffffffffffffff1673ffffffffffffffffffffffffffffffffffffffff16815260200190815260200160002060009054906101000a900460ff165b905092915050565b6000600860008473ffffffffffffffffffffffffffffffffffffffff1673ffffffffffffffffffffffffffffffffffffffff16815260200190815260200160002060008373ffffffffffffffffffffffffffffffffffffffff1673ffffffffffffffffffffffffffffffffffffffff16815260200190815260200160002054905092915050565b610be0610ee9565b73ffffffffffffffffffffffffffffffffffffffff168173ffffffffffffffffffffffffffffffffffffffff1603610c4d576040517f08c379a0000000000000000000000000000000000000000000000000000000008152600401610c44906123f7565b60405180910390fd5b600560008273ffffffffffffffffffffffffffffffffffffffff1673ffffffffffffffffffffffffffffffffffffffff16815260200190815260200160002060009054906101000a900460ff1615610d4057600160076000610cad610ee9565b73ffffffffffffffffffffffffffffffffffffffff1673ffffffffffffffffffffffffffffffffffffffff16815260200190815260200160002060008373ffffffffffffffffffffffffffffffffffffffff1673ffffffffffffffffffffffffffffffffffffffff16815260200190815260200160002060006101000a81548160ff021916908315150217905550610dd4565b60066000610d4c610ee9565b73ffffffffffffffffffffffffffffffffffffffff1673ffffffffffffffffffffffffffffffffffffffff16815260200190815260200160002060008273ffffffffffffffffffffffffffffffffffffffff1673ffffffffffffffffffffffffffffffffffffffff16815260200190815260200160002060006101000a81549060ff02191690555b610ddc610ee9565b73ffffffffffffffffffffffffffffffffffffffff168173ffffffffffffffffffffffffffffffffffffffff167f50546e66e5f44d728365dc3908c63bc5cfeeab470722c1677e3073a6ac294aa160405160405180910390a350565b610e49610e43610ee9565b856109a0565b610e88576040517f08c379a0000000000000000000000000000000000000000000000000000000008152600401610e7f906122d3565b60405180910390fd5b610e9484848484611264565b50505050565b610ebc610ea5610ee9565b838360405180602001604052806000815250611264565b5050565b50505050565b6000808273ffffffffffffffffffffffffffffffffffffffff163b119050919050565b600033905090565b600073ffffffffffffffffffffffffffffffffffffffff168373ffffffffffffffffffffffffffffffffffffffff1603610f60576040517f08c379a0000000000000000000000000000000000000000000000000000000008152600401610f5790612489565b60405180910390fd5b600073ffffffffffffffffffffffffffffffffffffffff168273ffffffffffffffffffffffffffffffffffffffff1603610fcf576040517f08c379a0000000000000000000000000000000000000000000000000000000008152600401610fc69061251b565b60405180910390fd5b80600860008573ffffffffffffffffffffffffffffffffffffffff1673ffffffffffffffffffffffffffffffffffffffff16815260200190815260200160002060008473ffffffffffffffffffffffffffffffffffffffff1673ffffffffffffffffffffffffffffffffffffffff168152602001908152602001600020819055508173ffffffffffffffffffffffffffffffffffffffff168373ffffffffffffffffffffffffffffffffffffffff167f8c5be1e5ebec7d5bd14f71427d1e84f3dd0314c0f7b2291e5b200ac8c7c3b925836040516110ad9190611d73565b60405180910390a3505050565b60006110c68484610b51565b90507fffffffffffffffffffffffffffffffffffffffffffffffffffffffffffffffff81146111405781811015611132576040517f08c379a000000000000000000000000000000000000000000000000000000000815260040161112990612587565b60405180910390fd5b61113f8484848403610ef1565b5b50505050565b600073ffffffffffffffffffffffffffffffffffffffff168673ffffffffffffffffffffffffffffffffffffffff16036111b5576040517f08c379a00000000000000000000000000000000000000000000000000000000081526004016111ac90612619565b60405180910390fd5b600073ffffffffffffffffffffffffffffffffffffffff168573ffffffffffffffffffffffffffffffffffffffff1603611224576040517f08c379a000000000000000000000000000000000000000000000000000000000815260040161121b906126ab565b60405180910390fd5b600061122e610ee9565b905061123e8188888888886114b6565b61124c81888888888861161d565b61125b81888888888888611837565b50505050505050565b600073ffffffffffffffffffffffffffffffffffffffff168473ffffffffffffffffffffffffffffffffffffffff16036112d3576040517f08c379a00000000000000000000000000000000000000000000000000000000081526004016112ca9061273d565b60405180910390fd5b60006112dd610ee9565b90506112ee818660008787876114b6565b6112fb8186600087611a09565b60008060008773ffffffffffffffffffffffffffffffffffffffff1673ffffffffffffffffffffffffffffffffffffffff16815260200190815260200160002054905084811015611381576040517f08c379a0000000000000000000000000000000000000000000000000000000008152600401611378906127cf565b60405180910390fd5b8481036000808873ffffffffffffffffffffffffffffffffffffffff1673ffffffffffffffffffffffffffffffffffffffff1681526020019081526020016000208190555084600160008282546113d8919061281e565b925050819055508573ffffffffffffffffffffffffffffffffffffffff168273ffffffffffffffffffffffffffffffffffffffff167fa78a9be3a7b862d26933ad85fb11d80ef66b8f972d7cbba06621d583943a4098878787604051611440939291906128a7565b60405180910390a3600073ffffffffffffffffffffffffffffffffffffffff168673ffffffffffffffffffffffffffffffffffffffff167fddf252ad1be2c89b69c2b068fc378daa952ba7f163c4a11628f55a4df523b3ef876040516114a69190611d73565b60405180910390a3505050505050565b6000731820a4b7618bde71dce8cdc73aab6c95905fad2473ffffffffffffffffffffffffffffffffffffffff1663aabbb8ca877f29ddb589b1fb5fc7cf394961c1adf5f8c6454761adf795e67fe149f658abe8956040518363ffffffff1660e01b8152600401611527929190612905565b602060405180830381865afa158015611544573d6000803e3d6000fd5b505050506040513d601f19601f820116820180604052508101906115689190612943565b9050600073ffffffffffffffffffffffffffffffffffffffff168173ffffffffffffffffffffffffffffffffffffffff1614611614578073ffffffffffffffffffffffffffffffffffffffff166375ab97828888888888886040518763ffffffff1660e01b81526004016115e196959493929190612970565b600060405180830381600087803b1580156115fb57600080fd5b505af115801561160f573d6000803e3d6000fd5b505050505b50505050505050565b61162986868686611a09565b60008060008773ffffffffffffffffffffffffffffffffffffffff1673ffffffffffffffffffffffffffffffffffffffff168152602001908152602001600020549050838110156116af576040517f08c379a00000000000000000000000000000000000000000000000000000000081526004016116a690612a51565b60405180910390fd5b8381036000808873ffffffffffffffffffffffffffffffffffffffff1673ffffffffffffffffffffffffffffffffffffffff16815260200190815260200160002081905550836000808773ffffffffffffffffffffffffffffffffffffffff1673ffffffffffffffffffffffffffffffffffffffff16815260200190815260200160002060008282546117429190612a71565b925050819055508473ffffffffffffffffffffffffffffffffffffffff168673ffffffffffffffffffffffffffffffffffffffff168873ffffffffffffffffffffffffffffffffffffffff167f06b541ddaa720db2b10a4d0cdac39b8d360425fc073085fac19bc826146779878787876040516117c1939291906128a7565b60405180910390a48473ffffffffffffffffffffffffffffffffffffffff168673ffffffffffffffffffffffffffffffffffffffff167fddf252ad1be2c89b69c2b068fc378daa952ba7f163c4a11628f55a4df523b3ef866040516118269190611d73565b60405180910390a350505050505050565b6000731820a4b7618bde71dce8cdc73aab6c95905fad2473ffffffffffffffffffffffffffffffffffffffff1663aabbb8ca877fb281fc8c12954d22544db45de3159a39272895b169a852b314f9cc762e44c53b6040518363ffffffff1660e01b81526004016118a8929190612905565b602060405180830381865afa1580156118c5573d6000803e3d6000fd5b505050506040513d601f19601f820116820180604052508101906118e99190612943565b9050600073ffffffffffffffffffffffffffffffffffffffff168173ffffffffffffffffffffffffffffffffffffffff1614611998578073ffffffffffffffffffffffffffffffffffffffff166223de298989898989896040518763ffffffff1660e01b815260040161196196959493929190612970565b600060405180830381600087803b15801561197b57600080fd5b505af115801561198f573d6000803e3d6000fd5b505050506119ff565b81156119fe576119bd8673ffffffffffffffffffffffffffffffffffffffff16610ec6565b156119fd576040517f08c379a00000000000000000000000000000000000000000000000000000000081526004016119f490612b5f565b60405180910390fd5b5b5b5050505050505050565b600960009054906101000a900473ffffffffffffffffffffffffffffffffffffffff1673ffffffffffffffffffffffffffffffffffffffff163373ffffffffffffffffffffffffffffffffffffffff1614611a99576040517f08c379a0000000000000000000000000000000000000000000000000000000008152600401611a9090612bcb565b60405180910390fd5b611aa584848484610ec0565b50505050565b600081519050919050565b600082825260208201905092915050565b6000819050602082019050919050565b600073ffffffffffffffffffffffffffffffffffffffff82169050919050565b6000611b0282611ad7565b9050919050565b611b1281611af7565b82525050565b6000611b248383611b09565b60208301905092915050565b6000602082019050919050565b6000611b4882611aab565b611b528185611ab6565b9350611b5d83611ac7565b8060005b83811015611b8e578151611b758882611b18565b9750611b8083611b30565b925050600181019050611b61565b5085935050505092915050565b60006020820190508181036000830152611bb58184611b3d565b905092915050565b600081519050919050565b600082825260208201905092915050565b60005b83811015611bf7578082015181840152602081019050611bdc565b83811115611c06576000848401525b50505050565b6000601f19601f8301169050919050565b6000611c2882611bbd565b611c328185611bc8565b9350611c42818560208601611bd9565b611c4b81611c0c565b840191505092915050565b60006020820190508181036000830152611c708184611c1d565b905092915050565b6000604051905090565b600080fd5b600080fd5b611c9581611af7565b8114611ca057600080fd5b50565b600081359050611cb281611c8c565b92915050565b6000819050919050565b611ccb81611cb8565b8114611cd657600080fd5b50565b600081359050611ce881611cc2565b92915050565b60008060408385031215611d0557611d04611c82565b5b6000611d1385828601611ca3565b9250506020611d2485828601611cd9565b9150509250929050565b60008115159050919050565b611d4381611d2e565b82525050565b6000602082019050611d5e6000830184611d3a565b92915050565b611d6d81611cb8565b82525050565b6000602082019050611d886000830184611d64565b92915050565b600080600060608486031215611da757611da6611c82565b5b6000611db586828701611ca3565b9350506020611dc686828701611ca3565b9250506040611dd786828701611cd9565b9150509250925092565b600060ff82169050919050565b611df781611de1565b82525050565b6000602082019050611e126000830184611dee565b92915050565b600080fd5b600080fd5b7f4e487b7100000000000000000000000000000000000000000000000000000000600052604160045260246000fd5b611e5a82611c0c565b810181811067ffffffffffffffff82111715611e7957611e78611e22565b5b80604052505050565b6000611e8c611c78565b9050611e988282611e51565b919050565b600067ffffffffffffffff821115611eb857611eb7611e22565b5b611ec182611c0c565b9050602081019050919050565b82818337600083830152505050565b6000611ef0611eeb84611e9d565b611e82565b905082815260208101848484011115611f0c57611f0b611e1d565b5b611f17848285611ece565b509392505050565b600082601f830112611f3457611f33611e18565b5b8135611f44848260208601611edd565b91505092915050565b600080600080600060a08688031215611f6957611f68611c82565b5b6000611f7788828901611ca3565b9550506020611f8888828901611ca3565b9450506040611f9988828901611cd9565b935050606086013567ffffffffffffffff811115611fba57611fb9611c87565b5b611fc688828901611f1f565b925050608086013567ffffffffffffffff811115611fe757611fe6611c87565b5b611ff388828901611f1f565b9150509295509295909350565b60006020828403121561201657612015611c82565b5b600061202484828501611ca3565b91505092915050565b61203681611af7565b82525050565b6000602082019050612051600083018461202d565b92915050565b6000806000606084860312156120705761206f611c82565b5b600061207e86828701611ca3565b935050602061208f86828701611cd9565b925050604084013567ffffffffffffffff8111156120b0576120af611c87565b5b6120bc86828701611f1f565b9150509250925092565b600080604083850312156120dd576120dc611c82565b5b60006120eb85828601611ca3565b92505060206120fc85828601611ca3565b9150509250929050565b600080600080608085870312156121205761211f611c82565b5b600061212e87828801611ca3565b945050602061213f87828801611cd9565b935050604085013567ffffffffffffffff8111156121605761215f611c87565b5b61216c87828801611f1f565b925050606085013567ffffffffffffffff81111561218d5761218c611c87565b5b61219987828801611f1f565b91505092959194509250565b600080604083850312156121bc576121bb611c82565b5b60006121ca85828601611cd9565b925050602083013567ffffffffffffffff8111156121eb576121ea611c87565b5b6121f785828601611f1f565b9150509250929050565b7f4e487b7100000000000000000000000000000000000000000000000000000000600052602260045260246000fd5b6000600282049050600182168061224857607f821691505b60208210810361225b5761225a612201565b5b50919050565b7f4552433737373a2063616c6c6572206973206e6f7420616e206f70657261746f60008201527f7220666f7220686f6c6465720000000000000000000000000000000000000000602082015250565b60006122bd602c83611bc8565b91506122c882612261565b604082019050919050565b600060208201905081810360008301526122ec816122b0565b9050919050565b7f4552433737373a20617574686f72697a696e672073656c66206173206f70657260008201527f61746f7200000000000000000000000000000000000000000000000000000000602082015250565b600061234f602483611bc8565b915061235a826122f3565b604082019050919050565b6000602082019050818103600083015261237e81612342565b9050919050565b7f4552433737373a207265766f6b696e672073656c66206173206f70657261746f60008201527f7200000000000000000000000000000000000000000000000000000000000000602082015250565b60006123e1602183611bc8565b91506123ec82612385565b604082019050919050565b60006020820190508181036000830152612410816123d4565b9050919050565b7f4552433737373a20617070726f76652066726f6d20746865207a65726f20616460008201527f6472657373000000000000000000000000000000000000000000000000000000602082015250565b6000612473602583611bc8565b915061247e82612417565b604082019050919050565b600060208201905081810360008301526124a281612466565b9050919050565b7f4552433737373a20617070726f766520746f20746865207a65726f206164647260008201527f6573730000000000000000000000000000000000000000000000000000000000602082015250565b6000612505602383611bc8565b9150612510826124a9565b604082019050919050565b60006020820190508181036000830152612534816124f8565b9050919050565b7f4552433737373a20696e73756666696369656e7420616c6c6f77616e63650000600082015250565b6000612571601e83611bc8565b915061257c8261253b565b602082019050919050565b600060208201905081810360008301526125a081612564565b9050919050565b7f4552433737373a207472616e736665722066726f6d20746865207a65726f206160008201527f6464726573730000000000000000000000000000000000000000000000000000602082015250565b6000612603602683611bc8565b915061260e826125a7565b604082019050919050565b60006020820190508181036000830152612632816125f6565b9050919050565b7f4552433737373a207472616e7366657220746f20746865207a65726f2061646460008201527f7265737300000000000000000000000000000000000000000000000000000000602082015250565b6000612695602483611bc8565b91506126a082612639565b604082019050919050565b600060208201905081810360008301526126c481612688565b9050919050565b7f4552433737373a206275726e2066726f6d20746865207a65726f20616464726560008201527f7373000000000000000000000000000000000000000000000000000000000000602082015250565b6000612727602283611bc8565b9150612732826126cb565b604082019050919050565b600060208201905081810360008301526127568161271a565b9050919050565b7f4552433737373a206275726e20616d6f756e7420657863656564732062616c6160008201527f6e63650000000000000000000000000000000000000000000000000000000000602082015250565b60006127b9602383611bc8565b91506127c48261275d565b604082019050919050565b600060208201905081810360008301526127e8816127ac565b9050919050565b7f4e487b7100000000000000000000000000000000000000000000000000000000600052601160045260246000fd5b600061282982611cb8565b915061283483611cb8565b925082821015612847576128466127ef565b5b828203905092915050565b600081519050919050565b600082825260208201905092915050565b600061287982612852565b612883818561285d565b9350612893818560208601611bd9565b61289c81611c0c565b840191505092915050565b60006060820190506128bc6000830186611d64565b81810360208301526128ce818561286e565b905081810360408301526128e2818461286e565b9050949350505050565b6000819050919050565b6128ff816128ec565b82525050565b600060408201905061291a600083018561202d565b61292760208301846128f6565b9392505050565b60008151905061293d81611c8c565b92915050565b60006020828403121561295957612958611c82565b5b60006129678482850161292e565b91505092915050565b600060c082019050612985600083018961202d565b612992602083018861202d565b61299f604083018761202d565b6129ac6060830186611d64565b81810360808301526129be818561286e565b905081810360a08301526129d2818461286e565b9050979650505050505050565b7f4552433737373a207472616e7366657220616d6f756e7420657863656564732060008201527f62616c616e636500000000000000000000000000000000000000000000000000602082015250565b6000612a3b602783611bc8565b9150612a46826129df565b604082019050919050565b60006020820190508181036000830152612a6a81612a2e565b9050919050565b6000612a7c82611cb8565b9150612a8783611cb8565b9250827fffffffffffffffffffffffffffffffffffffffffffffffffffffffffffffffff03821115612abc57612abb6127ef565b5b828201905092915050565b7f4552433737373a20746f6b656e20726563697069656e7420636f6e747261637460008201527f20686173206e6f20696d706c656d656e74657220666f7220455243373737546f60208201527f6b656e73526563697069656e7400000000000000000000000000000000000000604082015250565b6000612b49604d83611bc8565b9150612b5482612ac7565b606082019050919050565b60006020820190508181036000830152612b7881612b3c565b9050919050565b7f4f6e6c79204f776e65722063616e207472616e7366657220746f6b656e730000600082015250565b6000612bb5601e83611bc8565b9150612bc082612b7f565b602082019050919050565b60006020820190508181036000830152612be481612ba8565b905091905056fea264697066735822122070f4dc01acf133444c686351e821430cbd7d50a0fad7df6c3015d5296e425d5e64736f6c634300080d0033",
  "linkReferences": {},
  "deployedLinkReferences": {}
}